S0170000536D6172745F486F6D655F53656E642E7372656335
S11300000C946A000C9487000C9487000C9487006D
S11300100C9487000C9487000C9487000C94870040
S11300200C9487000C9487000C9487000C9489022C
S11300300C9487000C9487000C9487000C94870020
S11300400C9487000C9487000C9487000C94870010
S11300500C94870051039703B503D303F1035005B0
S11300608E061507800680068006800680068006B8
S1130070800680068006800680068006800680064C
S1130080800680068006800680068006800680063C
S1130090800680068006800680068006800680062C
S11300A0800680068006800680068006800680061C
S11300B0800680068006800680068006800680060C
S11300C080068006800660058105A205C305120628
S11300D04106700611241FBECFE5D8E0DEBFCDBFB8
S11300E012E0A0E6B0E0EAEDF0E102C005900D9266
S11300F0A830B107D9F722E0A8E0B2E001C01D9210
S1130100AF31B207E1F70E9417070C946B080C9407
S11301100000E199FECF9FBB8EBB8CB381608CBB8A
S11301208DB30895E199FECF9FBB8EBB8DBB8CB37D
S113013084608CBB8CB382608CBB089581B38B7F4D
S113014081BB81B3877F81BB81B38F7E81BB81B348
S11301508F7D81BB82B38C6382BB87B3816087BB95
S113016087B3826087BB87B3846087BB87B38860AB
S113017087BB0895E0E04AC088B3807F88BBE11163
S113018003C088B38E6088BBE13019F488B38D60F6
S113019088BBE23019F488B38B6088BBE33019F470
S11301A088B3876088BB829909C0F0E0EE0FFF1F17
S11301B0EE0FFF1FE05AFF4F80810895839909C015
S11301C0F0E0EE0FFF1FEE0FFF1FEF59FF4F80818E
S11301D00895849909C0F0E0EE0FFF1FEE0FFF1F92
S11301E0EE59FF4F80810895859909C0F0E0EE0F24
S11301F0FF1FEE0FFF1FED59FF4F808108958FE918
S11302009FE00197F1F700C00000EF5FE43008F4CD
S1130210B3CF8FEF08959BB39D7F9BBB84FF04C036
S11302209BB398609BBB03C09BB3977F9BBB85FF2D
S113023004C09BB390619BBB03C09BB39F7E9BBBDD
S113024086FF04C09BB390629BBB03C09BB39F7D9E
S11302509BBB882324F49BB390649BBB03C09BB3D8
S11302609F7B9BBB9BB394609BBBEFE9FFE0319703
S1130270F1F700C000009BB39B7F9BBBEFE9FFE05D
S11302803197F1F700C0000080FF04C09BB3986071
S11302909BBB03C09BB3977F9BBB81FF04C09BB3F5
S11302A090619BBB03C09BB39F7E9BBB82FF04C03A
S11302B09BB390629BBB03C09BB39F7D9BBB83FF9F
S11302C004C08BB380648BBB03C08BB38F7B8BBBAD
S11302D08BB384608BBB8FE99FE00197F1F700C07B
S11302E000008BB38B7F8BBBEFE9FFE03197F1F715
S11302F000C0000008958AB38E678ABB83E00E9421
S11303000B018FE79EE30197F1F700C0000083E043
S11303100E940B018FE79EE30197F1F700C00000F4
S113032083E00E940B018FE79EE30197F1F700C081
S1130330000082E00E940B0188E20E940B0188E029
S11303400E940B0181E00E940B0186E00E940B01D8
S11303509FEF29EF80E0915020408040E1F700C0FA
S113036000008CE00E940B0108959BB392609BBB3C
S113037084FF04C09BB398609BBB03C09BB3977F6F
S11303809BBB85FF04C09BB390619BBB03C09BB325
S11303909F7E9BBB86FF04C09BB390629BBB03C044
S11303A09BB39F7D9BBB882324F49BB390649BBB2E
S11303B003C09BB39F7B9BBB9BB394609BBBEFE948
S11303C0FFE03197F1F700C000009BB39B7F9BBB1C
S11303D0EFE9FFE03197F1F700C0000080FF04C0AF
S11303E09BB398609BBB03C09BB3977F9BBB81FF70
S11303F004C09BB390619BBB03C09BB39F7E9BBB1C
S113040082FF04C09BB390629BBB03C09BB39F7DE0
S11304109BBB83FF04C08BB380648BBB03C08BB3D3
S11304208F7B8BBB8BB384608BBB8FE99FE0019781
S1130430F1F700C000008BB38B7F8BBBEFE9FFE0CB
S11304403197F1F700C0000008950F931F93CF93E5
S11304508C01C0E003C00E94B501CF5FF801EC0F2E
S1130460F11D80818111F7CFCF911F910F910895D4
S11304701F93CF93DF93CDB7DEB72A970FB6F894C7
S1130480DEBF0FBECDBFFE0131962AE0DF011D9213
S11304902A95E9F76115710581059105D1F480E389
S11304A00E94B5012CC02AE030E040E050E00E94F8
S11304B04308E1E0F0E0EC0FFD1FE10FF11D17FD33
S11304C0FA95605D6083622F732F842F952F1F5FD1
S11304D001C010E0611571058105910521F71150E6
S11304E00CC0E1E0F0E0EC0FFD1FE10FF11D17FD82
S11304F0FA9580810E94B5011150112394F72A9630
S11305000FB6F894DEBF0FBECDBFDF91CF911F9120
S113051008951F920F920FB60F9211248F939F93F9
S1130520809109028F5F80930902909108029F5F76
S113053090930802853FA1F480910A02811110C0B2
S113054095B381E0892785BB1092090210920802B5
S113055010920F021092100289B78E7F89BF14C0C7
S1130560953F91F480910A02813071F485B38B7FB9
S113057085BB109209021092080210920F02109289
S1130580100289B78E7F89BF9F918F910F900FBE04
S11305900F901F90189581E00E940B0180E790E076
S11305A00E94250288E80E940B0188E790E00E94DF
S11305B0250280EC0E940B0180E890E00E94250255
S11305C088EC0E940B0188E890E00E9425020895BF
S11305D085B3816085BB89B7816089BF0E94CB02E6
S11305E085E080930F02089581E00E940B018FE85B
S11305F090E00E94250288E80E940B0187E990E0C0
S11306000E94250280EC0E940B018CE990E00E947C
S1130610250288EC0E940B0183EA90E00E942502E7
S1130620089581E00E940B0180E790E00E9425027A
S113063088E80E940B0188E790E00E94250280EC84
S11306400E940B0180E890E00E94250288EC0E9441
S11306500B018FE890E00E942502089585B3846021
S113066085BB89B7816089BF0E94110385E08093AF
S11306700F020895CF930E94BA00C82F8F3F09F448
S1130680D4C38E3409F4D1C320910F02822F90E099
S11306908730910508F0C9C3FC01E65DFF4F0C9457
S11306A06508C03369F410920A022F5F20930F0289
S11306B081E00E940B018AEA90E00E9425022DC08D
S11306C0C13369F481E080930A022F5F20930F0203
S11306D00E940B0189EB90E00E9425021EC081E07C
S11306E00E940B0188EC90E00E9425022FEF83EC1E
S11306F099E0215080409040E1F700C0000081E083
S11307000E940B0184ED90E00E94250280EC0E947F
S11307100B0183EE90E00E9425022FEF83EC99E019
S1130720215080409040E1F700C000007EC383EC7C
S11307300E940B018C2F0E94B5012FEF81EE94E0F3
S1130740215080409040E1F700C0000083EC0E94FB
S11307500B018AE20E94B501C053C0931B02809131
S11307600F028F5F80930F0260C384EC0E940B0121
S11307708C2F0E94B5012FEF81EE94E02150804030
S11307809040E1F700C0000084EC0E940B018AE273
S11307900E94B501C053C093160280910F028F5F6F
S11307A080930F0242C385EC0E940B018C2F0E94A0
S11307B0B5012FEF81EE94E0215080409040E1F7A5
S11307C000C0000085EC0E940B018AE20E94B50182
S11307D0C053C0931D0280910F028F5F80930F025C
S11307E024C386EC0E940B018C2F0E94B5012FEFCD
S11307F081EE94E0215080409040E1F700C0000079
S113080086EC0E940B018AE20E94B50181E00E94FD
S11308100B01C053C093150260911B028091170213
S1130820681322C09091160280911C0298131CC078
S113083090911D0280911902981316C080911E0296
S1130840C81312C080910A0281110EC080910E0259
S113085081110AC00E94E8021092180260E08EE141
S113086090E00E949200E1C280911402681322C0B9
S11308709091160280911A0298131CC090911D0247
S113088080911302981316C080911202C81312C0EB
S113089080910A02813071F480910E0281110AC0A4
S11308A00E942E031092180260E08EE190E00E94F4
S11308B09200BBC280910E02813029F590910A0208
S11308C0911121C084E190E00E949200609116028F
S11308D085E190E00E94920060911D0286E190E023
S11308E00E9492006091150287E190E00E949200BC
S11308F06FE088E190E00E94920080910E028F5F89
S113090080930E0292C2833009F05FC080910A0284
S1130910813009F05AC089E190E00E949200609110
S113092016028AE190E00E94920060911D028BE120
S113093090E00E949200609115028CE190E00E9488
S113094092006FE08DE190E00E94920080910E028F
S11309508F5F80930E0281E00E940B0184E190E09E
S11309600E9489008093170285E190E00E9489002B
S113097080931C0286E190E00E9489008093190212
S113098087E190E00E94890080931E0289E190E053
S11309900E948900809314028AE190E00E948900F9
S11309A080931A028BE190E00E94890080931302E5
S11309B08CE190E00E948900809312021092100250
S11309C010920E0210920F0230C2809118028F5FB3
S11309D08093180281E00E940B0184EF90E00E9452
S11309E025022FEF82E597E0215080409040E1F707
S11309F000C0000081E00E940B018091180263E0B6
S1130A0070E0681B7109072E000C880B990B0E947B
S1130A10380283E091E00E942502609118028EE181
S1130A2090E00E9492002FEF81EE94E021508040EC
S1130A309040E1F700C0000081E080930F028091B4
S1130A401802833009F0F1C185B3806185BB81E070
S1130A500E940B018FE091E00E94250280EC0E942D
S1130A600B018FE191E00E9425022FEF87EA91E6C6
S1130A70215080409040E1F700C0000085B38F7E94
S1130A8085BB81E00E940B018AE291E00E9425026D
S1130A901092180260E08EE190E00E949200C5C1BD
S1130AA08C2F0C2E000C990BAA0BBB0BFC0131965E
S1130AB0E933F10508F024C1EF5CFF4F0C9465089D
S1130AC080910D028111B1C181E00E940B018BE381
S1130AD091E00E94250280EC0E940B0182E491E0E7
S1130AE00E942502C093110288B38F7E88BB8C2F8D
S1130AF00E943B0888B3806188BB86E080930F0224
S1130B0094C180910D02811190C181E00E940B017A
S1130B1084E591E00E94250280EC0E940B0182E4AE
S1130B2091E00E942502C093110288B38F7E88BB96
S1130B308C2F0E943B0888B3806188BB86E0809339
S1130B400F0273C180910D0281116FC181E00E9477
S1130B500B018BE591E00E94250280EC0E940B01C1
S1130B6082E491E00E942502C093110288B38F7E33
S1130B7088BB8C2F0E943B0888B3806188BB86E0C9
S1130B8080930F0252C1C093110280910A028130F6
S1130B90D1F40E940B0182E691E00E94250280ECD0
S1130BA00E940B0182E491E00E94250288B38F7EAB
S1130BB088BB8C2F0E943B0888B3806188BB86E089
S1130BC080930F0232C181110AC090910D029111DC
S1130BD006C00E94F40281E080930D0226C18111B7
S1130BE024C180910D02813009F01FC10E940B01C4
S1130BF082E691E00E94250280EC0E940B0182E4CF
S1130C0091E00E94250288B38F7E88BB8C2F0E94BE
S1130C103B0888B3806188BB86E080930F02109202
S1130C200D0203C1C093110280910A02811121C0F7
S1130C3090910D029130E9F481E00E940B0189E961
S1130C4090E00E94250280EC0E940B0182E491E076
S1130C500E94250288B38F7E88BB8C2F0E943B089C
S1130C6088B3806188BB10920D0286E080930F02E6
S1130C70DCC0813009F0D9C00E940B010E9411032D
S1130C80D4C0C093110280910A02811121C09091B5
S1130C900D029130E9F481E00E940B018EE990E0AD
S1130CA00E94250280EC0E940B0182E491E00E94E4
S1130CB0250288B38F7E88BB8C2F0E943B0888B3A3
S1130CC0806188BB10920D0286E080930F02ADC054
S1130CD0813009F0AAC00E940B010E941103A5C033
S1130CE0C093110280910A0281119FC080910D026C
S1130CF0813009F09AC00E94CB0210920D0295C077
S1130D0080910A02811103C00E94CB0204C0813089
S1130D1011F40E94110310920D0287C0C23389F1AD
S1130D20C33309F459C0C13309F071C081E00E9492
S1130D300B0189E691E00E94250280EC0E940B01E0
S1130D4087E791E00E94250288B38F7E88BB8C2FB1
S1130D500E943B0888B3806188BB2FEF81EE94E04A
S1130D60215080409040E1F700C0000088B38F7E9E
S1130D7088BB809111020E943B0888B3806188BBC4
S1130D8054C081E00E940B0185E891E00E94250295
S1130D9080EC0E940B0183E991E00E94250288B354
S1130DA08F7E88BB8C2F0E943B0888B3806188BBF0
S1130DB02FEF81EE94E0215080409040E1F700C095
S1130DC0000088B38F7E88BB809111020E943B088B
S1130DD088B3806188BB29C088B38F7E88BB80E3D9
S1130DE00E943B0888B3806188BB80910A0281110C
S1130DF006C00E94CB0285E080930F0216C08130AA
S1130E00A1F40E94110385E080930F020EC081E0DB
S1130E100E940B0188EC90E00E94250280EC0E9465
S1130E200B0182E491E00E942502CF91089588E1AC
S1130E3090E00E94890080930C028DE190E00E9472
S1130E40890080930B0284E190E00E9489008093E2
S1130E50170285E190E00E94890080931C0286E1DC
S1130E6090E00E9489008093190287E190E00E943B
S1130E70890080931E0289E190E00E94890080939A
S1130E8014028AE190E00E94890080931A028BE1A7
S1130E9090E00E948900809313028CE190E00E940C
S1130EA089008093120284B3816084BB84B384601C
S1130EB084BB84B3806184BB0E947B010E949E003A
S1130EC00E9435080E943F088EE190E00E9489004C
S1130ED08093180280910C028F3039F480910B02B8
S1130EE08F3F19F482E080930E02809118028330C0
S1130EF059F585B3806185BB81E00E940B018FE0C9
S1130F0091E00E94250280EC0E940B018FE191E0A8
S1130F100E9425022FEF87EA91E6215080409040FD
S1130F20E1F700C0000085B38F7E85BB81E00E949D
S1130F300B018AE291E00E9425021092180260E0FF
S1130F408EE190E00E94920080910C028F3F09F0A4
S1130F5047C080910E02811143C081E00E940B01C1
S1130F6081EA91E00E94250280EC0E940B0182EB51
S1130F7091E00E9425022FEF89E698E121508040FC
S1130F809040E1F700C0000081E00E940B0187EB74
S1130F9091E00E9425022FEF85EA9EE021508040D7
S1130FA09040E1F700C0000081E00E940B0187EC53
S1130FB091E00E94250281E080930E0280930F024B
S1130FC010920A02809310028FE080930C022FEF9C
S1130FD083EC99E0215080409040E1F700C000008C
S1130FE080910B028F3FF1F480910E028230D1F494
S1130FF083E080930E0281E00E940B0188ED91E072
S11310000E94250281E080930F0280930A0280935C
S113101010022FEF83EC99E0215080409040E1F7DB
S113102000C000008091100281111CC081E00E9468
S11310300B0189EE91E00E94250280EC0E940B01D5
S113104087EF91E00E942502809110028F5F8093C8
S1131050100288B38F7E88BB80E30E943B0888B36C
S1131060806188BB0E943A0340CF87B3806B87BB03
S113107080E58DB908958FB9779BFECF089585E8F3
S113108083BF78940895A1E21A2EAA1BBB1BFD010D
S11310900DC0AA1FBB1FEE1FFF1FA217B307E40753
S11310A0F50720F0A21BB30BE40BF50B661F771FAB
S11310B0881F991F1A9469F760957095809590958B
S11310C09B01AC01BD01CF010895EE0FFF1F0590F8
S10D10D0F491E02D0994F894FFCF89
S11310DA3738394E3435364E3132334E4E304E4E21
S11310EA313E526F6F6D3100323E526F6F6D320076
S11310FA333E526F6F6D3300343E4D6F7265003468
S113110A3E526F6F6D3400353E545600363E434F9F
S113111A4E4400373E6261636B0041646D696E2020
S113112A70617373776F72640047756573742070A6
S113113A617373776F72640077726F6E6720656E7E
S113114A7472790053656C656374204D6F6465200D
S113115A3A2000303E41646D696E2020313E477565
S113116A6573740057726F6E672070617373776F5B
S113117A726400205472696573206C656674007920
S113118A6F752061726520626C6F636B65640066BB
S113119A6F722032302073656300456E7465722065
S11311AA7269676874207061737300526F6F6D207F
S11311BA3100313E6F6E20323E6F666620333E62E6
S11311CA61636B00526F6F6D203200526F6F6D2036
S11311DA3300526F6F6D2034007374617475733AFF
S11311EA2020206F6E2000323E6F66662020333E38
S11311FA6261636B007374617475733A20206F665D
S113120A662000313E6F6E202020333E6261636B9C
S113121A0057656C636F6D6520746F20536D61723E
S113122A7400486F6D650055722066697273742084
S113123A6C6F6720696E00456E7465722041646D37
S113124A696E205061737300456E74657220477528
S113125A65737420706173730073656C65637420BD
S113126A4D6F64653A2000303E41646D696E2031E9
S10B127A3E4775657374000022
S9030000FC
