:100000000C942A000C943C000C943C000C943C0092
:100010000C943C000C943C000C943C000C943C0070
:100020000C943C000C943C000C943C000C943C0060
:100030000C943E010C943C000C943C000C943C004D
:100040000C943C000C943C000C943C000C943C0040
:100050000C943C0011241FBECFE5D8E0DEBFCDBF1D
:1000600020E0A0E6B0E001C01D92A236B207E1F7A1
:100070000E9427010C9412020C9400000E940E02B0
:100080000895813001F130F08230B1F1833009F40C
:100090004CC00895413059F42AB381E090E002C089
:1000A000880F991F6A95E2F7822B8ABB08952AB3BD
:1000B00081E090E002C0880F991F6A95E2F7809571
:1000C00082238ABB0895413059F427B381E090E040
:1000D00002C0880F991F6A95E2F7822B87BB0895AB
:1000E00027B381E090E002C0880F991F6A95E2F77C
:1000F0008095822387BB0895413059F424B381E071
:1001000090E002C0880F991F6A95E2F7822B84BBAA
:10011000089524B381E090E002C0880F991F6A958A
:10012000E2F78095822384BB0895413059F421B3CE
:1001300081E090E002C0880F991F6A95E2F7822B58
:1001400081BB089521B381E090E002C0880F991F20
:100150006A95E2F78095822381BB0895813001F191
:1001600030F08230B1F1833009F44CC00895413051
:1001700059F42BB381E090E002C0880F991F6A9573
:10018000E2F7822B8BBB08952BB381E090E002C095
:10019000880F991F6A95E2F7809582238BBB08959B
:1001A000413059F428B381E090E002C0880F991FD4
:1001B0006A95E2F7822B88BB089528B381E090E02E
:1001C00002C0880F991F6A95E2F78095822388BB49
:1001D0000895413059F425B381E090E002C0880FC2
:1001E000991F6A95E2F7822B85BB089525B381E0BC
:1001F00090E002C0880F991F6A95E2F780958223EC
:1002000085BB0895413059F422B381E090E002C0EB
:10021000880F991F6A95E2F7822B82BB089522B35B
:1002200081E090E002C0880F991F6A95E2F78095FF
:10023000822382BB089541E00E944100089541E07D
:100240000E94AE00089540E00E94AE0008950E9412
:10025000CF0160E082E00E941B0162E082E00E9428
:100260001B0164E082E00E941B0166E082E00E94C4
:100270001B0167E082E00E941B01FFCF1F920F92DB
:100280000FB60F9211242F933F934F935F936F9369
:100290007F938F939F93AF93BF93EF93FF930E94AE
:1002A0003E000E94F90180936100809161008336D5
:1002B00081F128F4813649F08236C9F05FC0863674
:1002C00009F44BC08836B9F159C060E082E00E9461
:1002D0001F012FEF89E698E1215080409040E1F71F
:1002E00000C0000060E082E00E94230147C062E09D
:1002F00082E00E941F012FEF89E698E121508040A3
:100300009040E1F700C0000062E082E00E9423011B
:1003100035C064E082E00E941F012FEF89E698E17A
:10032000215080409040E1F700C0000064E082E08E
:100330000E94230123C066E082E00E941F012FEF8C
:1003400089E698E1215080409040E1F700C000002C
:1003500066E082E00E94230111C067E082E00E9413
:100360001F012FEF89E698E1215080409040E1F78E
:1003700000C0000067E082E00E942301FF91EF913E
:10038000BF91AF919F918F917F916F915F914F91AD
:100390003F912F910F900FBE0F901F9018958DB128
:1003A00080618DB941E064E081E00E94410041E05C
:1003B00065E081E00E94410041E067E081E00E9449
:1003C000410041E064E081E00E94AE008DB18062B6
:1003D0008DB98DB1877F8DB98DB18B7F8DB98EB180
:1003E0008E7F8EB98DB18E7F8DB98DB18D7F8DB998
:1003F0000895CF93C82F8DB180648DB940E064E03B
:1004000081E00E94AE00CFB9779BFECF41E064E06F
:1004100081E00E94AE008FB1CF9108955F9BFECF27
:080420008CB10895F894FFCFA0
:00000001FF
