:100000000C942A000C9447000C9447000C94470071
:100010000C9447000C9447000C9447000C94470044
:100020000C9447000C9447000C94FE090C94C009F2
:100030000C9447000C9447000C9447000C94470024
:100040000C9447000C9447000C9447000C94470014
:100050000C94470011241FBECFE5D8E0DEBFCDBF12
:1000600011E0A0E6B0E0EEE5FBE102C005900D92E4
:10007000A23AB107D9F721E0A2EAB1E001C01D928E
:10008000A33CB207E1F70E94D1080C94AD0D0C948B
:10009000000040E0682F80E00E94970086B1887FD2
:1000A00086B986B1866086B987B1806887B987B11D
:1000B000806487B987B18F7D87B986B1806886B93A
:1000C000089586B1806486B9349BFECF86B1806185
:1000D00086B924B185B190E0982F8827822B0895A6
:1000E00041E00E949700089541E00E9404010895B4
:1000F00040E00E9404010895CF93DF93C82FD62FCC
:100100000E947F0941E06D2F8C2F0E949700DF91A4
:10011000CF910895CF93C42F40E00E9404018C2F0B
:100120000E94A30982E00E949809CF91089581302E
:1001300001F130F08230B1F1833009F44CC0089500
:10014000413059F42AB381E090E002C0880F991F32
:100150006A95E2F7822B8ABB08952AB381E090E08A
:1001600002C0880F991F6A95E2F7809582238ABBA7
:100170000895413059F427B381E090E002C0880F20
:10018000991F6A95E2F7822B87BB089527B381E018
:1001900090E002C0880F991F6A95E2F7809582234C
:1001A00087BB0895413059F424B381E090E002C048
:1001B000880F991F6A95E2F7822B84BB089524B3B8
:1001C00081E090E002C0880F991F6A95E2F7809560
:1001D000822384BB0895413059F421B381E090E03B
:1001E00002C0880F991F6A95E2F7822B81BB0895A0
:1001F00021B381E090E002C0880F991F6A95E2F771
:100200008095822381BB0895813001F130F08230E6
:10021000B1F1833009F44CC00895413059F42BB347
:1002200081E090E002C0880F991F6A95E2F7822B67
:100230008BBB08952BB381E090E002C0880F991F1B
:100240006A95E2F7809582238BBB0895413059F47B
:1002500028B381E090E002C0880F991F6A95E2F709
:10026000822B88BB089528B381E090E002C0880FFC
:10027000991F6A95E2F78095822388BB08954130E3
:1002800059F425B381E090E002C0880F991F6A9568
:10029000E2F7822B85BB089525B381E090E002C090
:1002A000880F991F6A95E2F78095822385BB089590
:1002B000413059F422B381E090E002C0880F991FC9
:1002C0006A95E2F7822B82BB089522B381E090E029
:1002D00002C0880F991F6A95E2F78095822382BB3E
:1002E00008958130E1F030F0823071F1833009F40B
:1002F00040C053C049B381E090E09C01062E02C08B
:10030000220F331F0A94E2F7842F90E08223932375
:1003100002C0959587956A95E2F7982F3EC046B33F
:1003200081E090E09C01062E02C0220F331F0A9448
:10033000E2F7842F90E08223932302C0959587955E
:100340006A95E2F7982F29C043B381E090E09C01C1
:10035000062E02C0220F331F0A94E2F7842F90E08A
:100360008223932302C0959587956A95E2F7982F8B
:1003700014C040B381E090E09C01062E02C0220F21
:10038000331F0A94E2F7842F90E08223932302C064
:10039000959587956A95E2F7982F892F0895CF93C1
:1003A000C82F6130A1F441E060E00E94970041E075
:1003B00061E08C2F0E94970041E062E08C2F0E9448
:1003C000970041E063E08C2F0E94970013C040E04B
:1003D00060E00E94970040E061E08C2F0E9497004F
:1003E00040E062E08C2F0E94970040E063E08C2F99
:1003F0000E949700CF910895CF93C82F6130A1F448
:1004000041E064E00E94970041E065E08C2F0E948B
:10041000970041E066E08C2F0E94970041E067E082
:100420008C2F0E94970013C040E064E00E94970068
:1004300040E065E08C2F0E94970040E066E08C2F42
:100440000E94970040E067E08C2F0E949700CF91B8
:1004500008956F70813069F028F0823089F0833020
:10046000B1F008958BB3807F8BBB8BB3682B6BBBD4
:10047000089588B3807F88BB88B3682B68BB0895D4
:1004800085B3807F85BB85B3682B65BB089582B338
:10049000807F82BB82B3682B62BB0895607F81300E
:1004A00069F028F0823089F08330B1F008958BB381
:1004B0008F708BBB8BB3682B6BBB089588B38F7029
:1004C00088BB88B3682B68BB089585B38F7085BBE4
:1004D00085B3682B65BB089582B38F7082BB82B3EE
:1004E000682B62BB08958EBB9FBB6DBB84E08CBB49
:1004F0008CB382608CBBE199FECF08958EBB9FBB0D
:100500008CB381608CBB8DB30895CF93C82F6111DC
:100510000CC061E00E94CF0160E08C2F0E94FC01C2
:1005200060EF8C2F0E944E020BC060E00E94CF0152
:1005300061E08C2F0E94FC016FE08C2F0E94290249
:10054000CF910895DF92EF92FF920F931F93CF9375
:10055000DF93CDB7DEB760970FB6F894DEBF0FBE5E
:10056000CDBFF82E80E1E1E6F0E0DE0111960190CA
:100570000D928A95E1F7662371F1DD24DA94E12C7E
:100580005AC06FE08F2D0E94290240E06E2D8F2D02
:100590000E94040100E019C064E0600F8F2D0E94EA
:1005A0007101182F811110C0EE2DF0E0EE0FFF1F2A
:1005B000EE0FFF1F81E090E08C0F9D1FE80FF91FE9
:1005C000E00FF11DD08003C00F5F043028F311232A
:1005D000A9F1E39403C0DD24DA94E12C93E09E15A5
:1005E00080F62CC060EF8F2D0E944E0240E064E048
:1005F0006E0D8F2D0E94040100E018C0602F8F2D1A
:100600000E947101182F811110C0EE2DF0E0EE0F45
:10061000FF1FEE0FFF1F81E090E08C0F9D1FE80F82
:10062000F91FE00FF11DD08003C00F5F043030F3DD
:10063000112321F0E39493E09E15A0F68D2D609692
:100640000FB6F894DEBF0FBECDBFDF91CF911F91E3
:100650000F91FF90EF90DF900895CF93DF93C82F15
:10066000D62F41E00E9404018FE99FE00197F1F746
:1006700000C0000040E06D2F8C2F0E940401DF912C
:10068000CF910895CF92EF92FF920F931F93CF9344
:10069000DF93F82ED62F142FC22FE11022C06C2D1D
:1006A00062956F700E94290240E0612F8D2F0E9499
:1006B0000401602F8C2F0E942D036C2D8F2D0E9422
:1006C000290240E0612F8D2F0E940401602F8C2FA2
:1006D0000E942D038FE99FE00197F1F700C0000011
:1006E00021C06C2D0E944E0240E0612F8D2F0E9490
:1006F0000401602F8C2F0E942D036C2D6295607F6A
:100700008F2D0E944E0240E0612F8D2F0E94040128
:10071000602F8C2F0E942D038FE99FE00197F1F746
:1007200000C00000DF91CF911F910F91FF90EF90DB
:10073000CF900895CF92DF92EF92FF920F931F9385
:10074000CF93DF93C82FD62F142FF22E2FEF81EEE9
:1007500094E0215080409040E1F700C0000041E06B
:10076000612F8D2F0E94970041E0602F8F2D0E94F6
:100770009700E11052C061E08C2F0E94CF01689475
:10078000CC24C1F82F2D412F6D2F8C2F0E944203B6
:100790008FE295E70197F1F700C000000F2EF8E215
:1007A000CF2EF02D2F2D412F6D2F8C2F0E94420325
:1007B0008FEC97E00197F1F700C000000F2EFEE0EC
:1007C000CF2EF02D2F2D412F6D2F8C2F0E94420305
:1007D0008FEC97E00197F1F700C00000CC24C394A0
:1007E0002F2D412F6D2F8C2F0E9442038FE19EE40D
:1007F0000197F1F700C000000F2EF6E0CF2EF02D8C
:100800002F2D412F6D2F8C2F0E9442038FEC97E0EC
:100810000197F1F700C0000053C061E08C2F0E94E7
:10082000FC016894CC24C1F8EE24E3942F2D412FD1
:100830006D2F8C2F0E9442038FE295E70197F1F70D
:1008400000C000000F2EF8E2CF2EF02D2F2D412FEB
:100850006D2F8C2F0E9442038FEC97E00197F1F7E8
:1008600000C000000F2EFEE0CF2EF02D2F2D412FC7
:100870006D2F8C2F0E9442038FEC97E00197F1F7C8
:1008800000C00000CC24C3942F2D412F6D2F8C2F3E
:100890000E9442038FE19EE40197F1F700C000003F
:1008A0000F2EF6E0CF2EF02D2F2D412F6D2F8C2FF8
:1008B0000E9442038FEC97E00197F1F700C000001F
:1008C000DF91CF911F910F91FF90EF90DF90CF902C
:1008D0000895CF92EF92FF920F931F93CF93DF93E0
:1008E000F82ED62F142FC22FE11022C06C2D629546
:1008F0006F700E94290241E0612F8D2F0E94040138
:10090000602F8C2F0E942D036C2D8F2D0E942902A9
:1009100041E0612F8D2F0E940401602F8C2F0E94D7
:100920002D038FE99FE00197F1F700C0000021C07F
:100930006C2D0E944E0241E0612F8D2F0E94040118
:10094000602F8C2F0E942D036C2D6295607F8F2D60
:100950000E944E0241E0612F8D2F0E940401602F02
:100960008C2F0E942D038FE99FE00197F1F700C0C3
:100970000000DF91CF911F910F91FF90EF90CF90EA
:1009800008958F929F92AF92BF92CF92DF92EF9293
:10099000FF920F931F93CF93DF93882E962EA42E52
:1009A000B22EF02E1E2DE60109C0E12E0F2D2B2DAB
:1009B0004A2D692D882D0E9469042196C880C11096
:1009C000F4CFDF91CF911F910F91FF90EF90DF90C7
:1009D000CF90BF90AF909F908F900895CF92EF925D
:1009E0000F93CC24C3940E9442038FE19EE40197AD
:1009F000F1F700C000000F91EF90CF900895AF92F3
:100A0000CF92EF920F939FEF9C0D9230B8F4AA20F3
:100A1000C9F090E19A15D0F091E0C91206C00F2EEE
:100A2000FFE7CF2EF02DCA0C16C092E0C91212C0FB
:100A30000F2EFFEBCF2EF02DCA0C0DC06894CC24E6
:100A4000C7F809C06894CC24C7F805C06894CC24C2
:100A5000C7F801C0C12C0E9442038FEC97E00197B8
:100A6000F1F700C000000F91EF90CF90AF90089584
:100A70008F929F92AF92BF92CF92DF92EF92FF92AE
:100A80000F931F93CF93DF93CDB7DEB727970FB6A2
:100A9000F894DEBF0FBECDBF182FF62E942E822EF7
:100AA000DF92CF92BF92AF9281E790E09F938F93B6
:100AB000CE0101966C019F938F930E94C30A282D4B
:100AC000492D6F2D812F0E94C1040FB6F894DEBF0F
:100AD0000FBECDBF27960FB6F894DEBF0FBECDBFB9
:100AE000DF91CF911F910F91FF90EF90DF90CF900A
:100AF000BF90AF909F908F90089541E00E94970023
:100B0000089541E00E940401089540E00E9404011C
:100B10000895CF93DF93C82FD62F0E9471018130A3
:100B200031F440E06D2F8C2F0E94040105C041E09C
:100B30006D2F8C2F0E940401DF91CF9108950E94A8
:100B4000490008950E94610020E03AE0AC01429F14
:100B5000C001439F900D529F900D112460E078E2F8
:100B60000E94790A862F0895CF92DF92EF920F9319
:100B70002FEF89E698E1215080409040E1F700C0D6
:100B80000000EE24E39402E020E043E060E080E037
:100B90000E94EE040F2EF0E8CF2EF0E0DF2EF02DB5
:100BA00020E043E060E080E00E94C1042FEF81EE8E
:100BB00094E0215080409040E1F700C000000F2EEB
:100BC000F0ECCF2EF02D20E043E060E080E00E94CA
:100BD00042031092A30145C041E060E082E00E9420
:100BE000A2028093AD018F3FB9F3C82EEE24E394A7
:100BF00002E020E043E060E080E00E9469042FEF23
:100C000084E39CE0215080409040E1F700C0000068
:100C1000E091A301F0E0EA54FE4F8091AD018083A2
:100C20006894CC24C4F820E043E060E080E00E94B7
:100C300042030F2EFAE2CF2EF02D20E043E060E0D9
:100C400080E00E9469042FEF80E792E0215080400D
:100C50009040E1F700C000008091A3018F5F809376
:100C6000A3018091A301843008F4B6CF0F91EF90D7
:100C7000DF90CF900895CF92DF92EF920F930E9472
:100C8000A20590E09093B4018093B3018A3191055D
:100C900070F541E062E083E00E948A008CE890E019
:100CA0000E946C0A60E081E00E9489050F2EFEEA36
:100CB000CF2EF0E0DF2EF02DEE24E39402E020E0D2
:100CC00043E060E080E00E94C10465E081E00E94B2
:100CD00074002FEF89E698E1215080409040E1F7C1
:100CE00000C0000065E081E00E94780099C08C326D
:100CF000910508F441C0EE24E39402E020E043E0D3
:100D000060E080E00E94EE0441E062E083E00E9447
:100D10008A0089EB90E00E946C0A61E081E00E9409
:100D200081052FEF84E39CE0215080409040E1F763
:100D300000C0000061E081E00E94850562E081E082
:100D40000E9481052FEF84E39CE021508040904079
:100D5000E1F700C0000062E081E00E9485050F2EEF
:100D6000F9EDCF2EF0E0DF2EF02D20E043E060E043
:100D700080E00E94C10454C08E97A0F1EE24E39459
:100D800002E020E043E060E080E00E94EE0441E009
:100D900062E083E00E948A008CE890E00E946C0A86
:100DA00062E081E00E9489050F2EFEEACF2EF0E07E
:100DB000DF2EF02D20E043E060E080E00E94C104DF
:100DC00065E081E00E9474002FEF89E698E12150F0
:100DD00080409040E1F700C0000065E081E00E94A3
:100DE00078001EC0EE24E39402E020E043E060E0DF
:100DF00080E00E94EE0482EE90E00E946C0A0F2ECA
:100E0000F1E0CF2EF1E0DF2EF02D20E043E060E0B6
:100E100080E00E94C10441E062E083E00E948A0019
:100E20000F91EF90DF90CF900895AF92BF92CF9245
:100E3000DF92EF920F939091B6018091A9019813E0
:100E40008FC09091B7018091AA01981389C09091A9
:100E5000B8018091AB01981383C09091B901809142
:100E6000AC0198137DC0EE24E39402E020E043E05F
:100E700060E080E00E94EE040F2EF5E1CF2EF1E05D
:100E8000DF2EF02D20E043E060E080E00E94C1040E
:100E90002FEF84E39CE0215080409040E1F700C0B8
:100EA0000000AA24A394CC24C39420E043E060E093
:100EB00080E00E94FF0420E043E060E080E00E94C8
:100EC000EE042FEF89E698E1215080409040E1F751
:100ED00000C000000F2EF4E2CF2EF1E0DF2EF02D47
:100EE00020E043E060E080E00E94C1040F2EF0ECBF
:100EF000CF2EF02D20E043E060E080E00E9442032E
:100F00002FEF89E698E1215080409040E1F700C042
:100F1000000020E043E060E080E00E94EE040F2E3D
:100F2000F6E3CF2EF1E0DF2EF02D20E043E060E08D
:100F300080E00E94C1042FEF89E698E121508040B3
:100F40009040E1F700C0000020E043E060E080E076
:100F50000E94EE0481E08093B2010E943B067CC0B7
:100F600080916000882309F456C0EE24E39402E0E7
:100F700020E043E060E080E00E94EE040F2EF7E402
:100F8000CF2EF1E0DF2EF02D20E043E060E080E0A6
:100F90000E94C1042FEF89E698E1215080409040E3
:100FA000E1F700C000000F2EF0ECCF2EF02D20E076
:100FB00043E060E080E00E9442030F2EF6E5CF2E72
:100FC000F1E0DF2EF02D20E043E060E080E00E94C1
:100FD000C104A0906000B12CC12CD12C20E043E0D2
:100FE00060E080E00E9438052FEF89E698E121500B
:100FF00080409040E1F700C0000080916000815087
:101000008093600020E043E060E080E00E94EE0416
:101010001092B20121C0EE24E39402E020E043E00C
:1010200060E080E00E94EE040F2EF1E6CF2EF1E0AA
:10103000DF2EF02D20E043E060E080E00E94C1045C
:101040002FEF89E698E1215080409040E1F700C001
:10105000000081E08093B2018091B2010F91EF9086
:10106000DF90CF90BF90AF900895CF92DF92EF9234
:101070000F93CF93DF9354C041E060E082E00E9481
:10108000A2028093AD018F3F09F44AC0C82EEE241E
:10109000E39402E020E043E060E080E00E94690425
:1010A0002FEF84E39CE0215080409040E1F700C0A6
:1010B00000008091A20190E06091AD01FC01E55437
:1010C000FE4F608301960E947302C091A201D0E09E
:1010D000CE0101960E947E02C755DE4F8883809123
:1010E000A2018F5F8093A2016894CC24C4F820E011
:1010F00043E060E080E00E9442030F2EFAE2CF2E30
:10110000F02D20E043E060E080E00E9469042FEFD2
:1011100080E792E0215080409040E1F700C000005D
:101120008091A201843008F4A7CF8FE19EE401975B
:10113000F1F700C00000EE24E39402E020E043E079
:1011400060E080E00E94EE040F2EF0E7CF2EF1E089
:10115000DF2EF02D20E043E060E080E00E94C1043B
:101160009FEF29E688E1915020408040E1F700C0E0
:1011700000000E94B4050E9415078093B20106C0CA
:101180000E94B4050E9415078093B2018091B201BC
:101190008823B1F3DF91CF910F91EF90DF90CF9043
:1011A000089560E081E00E947D0561E081E00E9499
:1011B0007D0562E081E00E947D0563E081E00E94A0
:1011C0007D0565E081E00E947000EE24E39402E07A
:1011D00020E043E060E080E00E949A0341E060E0AC
:1011E00082E00E94850280E00E949F0562E083E029
:1011F0000E947C0060E875E280E090E00E94280A8E
:1012000081E090E00E947E028093BA018F3FC1F599
:101210000F2EFCE7CF2EF1E0DF2EF02D20E043E093
:1012200060E080E00E94C1042FEF89E698E1215040
:1012300080409040E1F700C00000AA24A394CC2491
:10124000C39420E043E060E080E00E94FF040F2EA2
:10125000F7E8CF2EF1E0DF2EF02D20E043E060E054
:1012600080E00E94C1040F2EF0ECCF2EF02D20E084
:1012700043E060E080E00E9442030E9435083EC0E7
:101280001092A3010DC0D0E0CE0101960E947E0213
:10129000C755DE4F88838091A3018F5F8093A301A0
:1012A000C091A301C43078F30F2EF5E9CF2EF1E001
:1012B000DF2EF02DEE24E39402E020E043E060E036
:1012C00080E00E94C1040F2EF0ECCF2EF02D20E024
:1012D00043E060E080E00E9442030E94B4050E9467
:1012E00015078093B20106C00E94B4050E9415073D
:1012F0008093B2018091B2018823B1F3FFCF8FB701
:1013000080688FBF83B7806483BF83B7886083BFE3
:1013100083B78F7C83BF83B7806383BF83B78F77A7
:1013200083BF89B78E7F89BF89B78D7F89BF0895B5
:101330001092A80193B7987F93BF93B7892B83BF6F
:1013400008958CBF08951F93CF93DF931F92CDB75D
:10135000DEB7182F41E063E083E00E949700198216
:10136000912F80E064E670E00E948D0A60956983A9
:1013700089810E94A1090F90DF91CF911F9108955B
:101380001F920F920FB60F9211242F933F934F93FA
:101390005F936F937F938F939F93AF93BF93EF93DD
:1013A000FF938091A4019091A501A091A601B09115
:1013B000A7010196A11DB11D8093A4019093A501E1
:1013C000A093A601B093A7018091A801882329F0DA
:1013D000E091C101F091C2010995FF91EF91BF9198
:1013E000AF919F918F917F916F915F914F913F91BD
:1013F0002F910F900FBE0F901F9018951F920F9274
:101400000FB60F9211242F933F934F935F936F93D7
:101410007F938F939F93AF93BF93EF93FF93E0914D
:10142000BF01F091C001099588B7826088BFFF9124
:10143000EF91BF91AF919F918F917F916F915F914C
:101440004F913F912F910F900FBE0F901F901895C5
:1014500020B52F7720BD20B52F7B20BDDC01CB012F
:10146000880F991FAA1FBB1F880F991FAA1FBB1F98
:101470009C01AD01220F331F441F551F220F331F44
:10148000441F551F60E072E18AE790E00E94A10AC4
:101490002150310980B5826080BD80B5846080BDF7
:1014A0008AB18B7F8AB980B58F7E80BD80B58F7DF4
:1014B00080BD80B5886080BD8AB188608AB98AB1F4
:1014C00080618AB980B5806880BD30BD29B9089532
:1014D0005D9BFECF8CB90895CF93DF93EC0103C0E1
:1014E0000E94680A219688818111FACFDF91CF91FD
:1014F0000895AA1BBB1B51E107C0AA1FBB1FA6175B
:10150000B70710F0A61BB70B881F991F5A95A9F7AC
:1015100080959095BC01CD01089597FB072E16F498
:10152000009407D077FD09D00E94790A07FC05D006
:101530003EF4909581959F4F0895709561957F4FEA
:101540000895A1E21A2EAA1BBB1BFD010DC0AA1F04
:10155000BB1FEE1FFF1FA217B307E407F50720F01C
:10156000A21BB30BE40BF50B661F771F881F991F97
:101570001A9469F760957095809590959B01AC01E0
:10158000BD01CF010895AEE0B0E0E9ECFAE00C94C3
:10159000840D0D891E8986E08C831A8309838FEF61
:1015A0009FE79E838D83AE01475E5F4F6F89788D85
:1015B000CE0101960E94E50AEF81F885E00FF11F48
:1015C00010822E96E4E00C94A00DABE0B0E0EBEEC0
:1015D000FAE00C94760D6C017B018A01FC01178204
:1015E0001682838181FFCCC1CE0101963C01F601B8
:1015F0009381F70193FD859193FF81917F0188236A
:1016000009F4BAC1853239F493FD859193FF819134
:101610007F01853229F4B60190E00E94DC0CE7CF0F
:10162000912C212C312CFFE1F315D8F08B3279F07D
:1016300038F4803279F08332A1F4232D20611DC06B
:101640008D3261F0803369F4232D216016C0832D23
:101650008260382EE32DE4603E2E2AC0F32DF86020
:101660001DC037FC2DC020ED280F2A3040F08E32EF
:10167000B9F436FC81C1232D2064322E19C036FE08
:1016800006C08AE0989E200D1124922E11C0EAE037
:101690002E9E200D1124222EF32DF0623F2E08C025
:1016A0008C3621F4832D8068382E02C0883641F4B0
:1016B000F70193FD859193FF81917F018111B3CF54
:1016C000982F9F7D9554933028F40C5F1F4F9FE314
:1016D00099830DC0833631F0833771F0833509F07B
:1016E00059C021C0F801808189830E5F1F4F882473
:1016F0008394912C530113C02801F2E04F0E511C2A
:10170000F801A080B18036FE03C0692D70E002C0F0
:101710006FEF7FEFC5010E94D10C4C018201F32DC8
:10172000FF773F2E16C0280122E0420E511CF8011F
:10173000A080B18036FE03C0692D70E002C06FEF5B
:101740007FEFC5010E94C60C4C01F32DF0683F2EBF
:10175000820133FC1BC0822D90E088169906B0F4FC
:10176000B60180E290E00E94DC0C2A94F4CFF501EF
:1017700037FC859137FE81915F01B60190E00E94B0
:10178000DC0C21102A9421E0821A91088114910422
:1017900071F7E8C0843611F0893641F5F80137FE5B
:1017A00007C060817181828193810C5F1F4F08C0E7
:1017B00060817181072E000C880B990B0E5F1F4F03
:1017C000F32DFF763F2E97FF09C090958095709579
:1017D00061957F4F8F4F9F4FF0683F2E2AE030E09A
:1017E000A3010E94180D882E861845C0853731F454
:1017F000232D2F7EB22E2AE030E025C0932D997F35
:10180000B92E8F36C1F018F4883579F0B5C080371D
:1018100019F0883721F0B0C0E92FE061BE2EB4FE88
:101820000DC0FB2DF460BF2E09C034FE0AC0292F65
:101830002660B22E06C028E030E005C020E130E08E
:1018400002C020E132E0F801B7FE07C0608171817B
:10185000828193810C5F1F4F06C06081718180E09F
:1018600090E00E5F1F4FA3010E94180D882E86186E
:10187000FB2DFF773F2E36FE0DC0232D2E7FA22E8F
:10188000891458F434FE0BC032FC09C0832D8E7EBF
:10189000A82E05C0B82CA32C03C0B82C01C0B92CAD
:1018A000A4FE0FC0FE01E80DF11D8081803321F4FC
:1018B0009A2D997EA92E09C0A2FE06C0B394B394B6
:1018C00004C08A2D867809F0B394A3FC11C0A0FE51
:1018D00006C0B21488F4280C922C9B180EC0B214C7
:1018E00060F4B60180E290E00E94DC0CB394F7CF84
:1018F000B21418F42B1802C0982C212CA4FE10C08E
:10190000B60180E390E00E94DC0CA2FE17C0A1FCAF
:1019100003C088E790E002C088E590E0B6010CC003
:101920008A2D867859F0A1FE02C08BE201C080E2C8
:10193000A7FC8DE2B60190E00E94DC0C891438F41B
:10194000B60180E390E00E94DC0C9A94F7CF8A9471
:10195000F301E80DF11D8081B60190E00E94DC0CDE
:101960008110F5CF222009F442CEB60180E290E04A
:101970000E94DC0C2A94F6CFF6018681978102C082
:101980008FEF9FEF2B96E2E10C94920DFC010590F6
:10199000615070400110D8F7809590958E0F9F1F71
:1019A0000895FC016150704001900110D8F78095B6
:1019B00090958E0F9F1F08950F931F93CF93DF93E2
:1019C000FB01238121FD03C08FEF9FEF2CC022FF7D
:1019D00016C046815781248135814217530744F44C
:1019E000A081B1819D012F5F3F4F318320838C9374
:1019F000268137812F5F3F4F3783268314C08B01A9
:101A0000EC01FB010084F185E02D0995892BE1F6BD
:101A1000D80116968D919C911797019617969C93D5
:101A20008E931697CE01DF91CF911F910F9108955C
:101A3000FA01AA27283051F1203181F1E8946F93FF
:101A40006E7F6E5F7F4F8F4F9F4FAF4FB1E03ED0A5
:101A5000B4E03CD0670F781F891F9A1FA11D680F43
:101A6000791F8A1F911DA11D6A0F711D811D911D76
:101A7000A11D20D009F468943F912AE0269F1124EB
:101A80003019305D3193DEF6CF010895462F47704F
:101A9000405D4193B3E00FD0C9F7F6CF462F4F70AA
:101AA000405D4A3318F0495D31FD4052419302D008
:101AB000A9F7EACFB4E0A6959795879577956795AE
:101AC000BA95C9F700976105710508959B01AC01AE
:101AD0000A2E06945795479537952795BA95C9F7D5
:101AE000620F731F841F951FA01D08952F923F92B0
:101AF0004F925F926F927F928F929F92AF92BF921E
:101B0000CF92DF92EF92FF920F931F93CF93DF93C9
:101B1000CDB7DEB7CA1BDB0B0FB6F894DEBF0FBE26
:101B2000CDBF09942A88398848885F846E847D8473
:101B30008C849B84AA84B984C884DF80EE80FD8075
:101B40000C811B81AA81B981CE0FD11D0FB6F894EB
:0E1B5000DEBF0FBECDBFED010895F894FFCFAC
:101B5E000341303D2B3132332D3435362A37383967
:101B6E002F2564002D00257325642E253034640046
:101B7E00456E74657220706173733A005468652007
:101B8E00636F6E646974696F6E206F66207468652A
:101B9E0020686F757365206973206261640020751B
:101BAE006E737461626C65200054686520686F7591
:101BBE0073652074656D70657261747572652069E8
:101BCE007320737461626C650020737461626C655E
:101BDE002000446F6E277420776F7272792C205418
:101BEE00686520686F75736520697320736166651B
:101BFE00002054686520686F7573652069732073C3
:101C0E006166652000506173732069732072696785
:101C1E006874200054686520646F6F7220697320A9
:101C2E006F70656E200057656C636F6D65204D6F2C
:101C3E0068616D656420005061737320697320774D
:101C4E00726F6E67200054727920616761696E3A17
:101C5E000053797374656D20426C6F636B6564001D
:101C6E00506173732069732073657400536D6172D4
:101C7E007420486F6D6500536574207061737377BF
:101C8E006F72643A00456E746572205061737320F2
:021C9E003A000A
:00000001FF
