:100000000C942A000C943C000C943C000C943C0092
:100010000C943C000C943C000C943C000C943C0070
:100020000C943C000C943C000C943C000C94060195
:100030000C943C000C943C000C943C000C943C0050
:100040000C943C000C943C000C943C000C943C0040
:100050000C943C0011241FBECFE5D8E0DEBFCDBF1D
:1000600020E0A0E6B0E001C01D92A436B207E1F79F
:100070000E9456000C9499020C94000087B1806491
:1000800087B986B1806886B986B1816086B986B144
:10009000826086B986B1846086B9089586B180642D
:1000A00086B93699FECF84B195B108950E943E007D
:1000B0000E9460010E946B0184B3816084BB84B3A1
:1000C000826084BB84B3846084BB84B3886084BB57
:1000D00084B3806184BB84B3806284BB0E94670167
:1000E00099278333910559F134F48133910559F0FF
:1000F000C297B9F0F3CF85339105F1F174F1C6974A
:1001000009F449C0EBCF0E946701813321F485B324
:10011000816085BBE3CF823309F785B38E7F85BBD2
:10012000DDCF0E946701813321F485B3826085BBF6
:10013000D5CF823399F685B38D7F85BBCFCF0E9413
:100140006701813321F485B3846085BBC7CF8233D7
:1001500029F685B38B7F85BBC1CF0E9467018133B0
:1001600021F485B3886085BBB9CF823309F0B6CF5F
:1001700085B3877F85BBB2CF0E946701813321F4AD
:1001800085B3806185BBAACF823309F0A7CF85B341
:100190008F7E85BBA3CF0E944E00BC0180E090E023
:1001A0000E949E0120E030E04AEF5EE30E940402DC
:1001B0000E946F0170936300609362000E94670168
:1001C000813359F420916200309163002931310567
:1001D00020F481E08093610081CF813371F420911C
:1001E0006200309163002931310538F085B38062B7
:1001F00085BB81E08093610071CF823309F06ECFBF
:1002000085B38F7D85BB1092610068CF1F920F92DE
:100210000FB60F9211242F933F934F935F936F93D9
:100220007F938F939F93AF93BF93EF93FF938091AF
:1002300060008F5F809360000E944E00BC0180E0F0
:1002400090E00E949E0120E030E04AEF5EE30E94D1
:1002500004020E946F019B0170936300609362002F
:1002600080916000843169F490916100913049F48B
:100270002931310530F085B3806285BB1092600072
:100280000EC0843161F480916100813041F42A31E3
:10029000310528F485B3806285BB10926000FF9120
:1002A000EF91BF91AF919F918F917F916F915F91EE
:1002B0004F913F912F910F900FBE0F901F90189567
:1002C00087B3806487BB8DB180648DB90895779BB7
:1002D000FECF8FB1089585E883BF789408950E947A
:1002E000E30188F09F5798F0B92F9927B751B0F0E4
:1002F000E1F0660F771F881F991F1AF0BA95C9F7AA
:1003000014C0B13091F00E94FD01B1E008950C9449
:10031000FD01672F782F8827B85F39F0B93FCCF3FC
:10032000869577956795B395D9F73EF49095809526
:10033000709561957F4F8F4F9F4F0895E89409C046
:1003400097FB3EF490958095709561957F4F8F4F08
:100350009F4F9923A9F0F92F96E9BB279395F6951E
:10036000879577956795B795F111F8CFFAF4BB0F9C
:1003700011F460FF1BC06F5F7F4F8F4F9F4F16C000
:10038000882311F096E911C0772321F09EE8872F8A
:10039000762F05C0662371F096E8862F70E060E046
:1003A0002AF09A95660F771F881FDAF7880F9695BF
:1003B000879597F9089557FD9058440F551F59F0A8
:1003C0005F3F71F04795880F97FB991F61F09F3F42
:1003D00079F087950895121613061406551FF2CF6B
:1003E0004695F1DF08C0161617061806991FF1CFBB
:1003F00086957105610508940895E894BB276627E2
:100400007727CB0197F908950E9417020C94880270
:100410000E947A0238F00E94810220F0952311F0A8
:100420000C9471020C94770211240C94FE010E942A
:10043000DB0170F3959FC1F3950F50E0551F629F4C
:10044000F001729FBB27F00DB11D639FAA27F00D2D
:10045000B11DAA1F649F6627B00DA11D661F829F54
:100460002227B00DA11D621F739FB00DA11D621F39
:10047000839FA00D611D221F749F3327A00D611D56
:10048000231F849F600D211D822F762F6A2F112438
:100490009F5750409AF0F1F088234AF0EE0FFF1F6B
:1004A000BB1F661F771F881F91505040A9F79E3FC2
:1004B000510580F00C9471020C94FE015F3FE4F34F
:1004C000983ED4F3869577956795B795F795E79518
:1004D0009F5FC1F7FE2B880F911D9695879597F921
:1004E000089597F99F6780E870E060E008959FEFB6
:1004F00080EC089500240A941616170618060906BB
:10050000089500240A941216130614060506089589
:10051000092E0394000C11F4882352F0BB0F40F411
:10052000BF2B11F460FF04C06F5F7F4F8F4F9F4F51
:060530000895F894FFCFCE
:00000001FF
