S00E00004D41535445522E737265634A
S11300000C942A000C9447000C9447000C9447006D
S11300100C9447000C9447000C9447000C94470040
S11300200C9447000C9447000C94DD040C949F043A
S11300300C9436040C9447000C9447000C9447002D
S11300400C9447000C9447000C9447000C94470010
S11300500C94470011241FBECFE5D8E0DEBFCDBF0E
S113006010E0A0E6B0E0EEEDFAE002C005900D92DB
S1130070AE37B107D9F720E0AEE7B0E001C01D927A
S1130080A838B207E1F70E94DC030C946D050C94C8
S1130090000060E875E280E090E00E9407050895A2
S11300A00E9447050895813001F130F08230B1F1AA
S11300B0833009F44CC00895413059F42AB381E0E7
S11300C090E002C0880F991F6A95E2F7822B8ABBE1
S11300D008952AB381E090E002C0880F991F6A95C1
S11300E0E2F7809582238ABB0895413059F427B3FF
S11300F081E090E002C0880F991F6A95E2F7822B95
S113010087BB089527B381E090E002C0880F991F50
S11301106A95E2F78095822387BB0895413059F4AC
S113012024B381E090E002C0880F991F6A95E2F73A
S1130130822B84BB089524B381E090E002C0880F31
S1130140991F6A95E2F78095822384BB0895413014
S113015059F421B381E090E002C0880F991F6A9599
S1130160E2F7822B81BB089521B381E090E002C0C5
S1130170880F991F6A95E2F78095822381BB0895C1
S1130180813001F130F08230B1F1833009F44CC098
S11301900895413059F42BB381E090E002C0880FF8
S11301A0991F6A95E2F7822B8BBB08952BB381E0EC
S11301B090E002C0880F991F6A95E2F78095822328
S11301C08BBB0895413059F428B381E090E002C01C
S11301D0880F991F6A95E2F7822B88BB089528B38C
S11301E081E090E002C0880F991F6A95E2F780953C
S11301F0822388BB0895413059F425B381E090E00F
S113020002C0880F991F6A95E2F7822B85BB089577
S113021025B381E090E002C0880F991F6A95E2F748
S11302208095822385BB0895413059F422B381E03F
S113023090E002C0880F991F6A95E2F7822B82BB77
S1130240089522B381E090E002C0880F991F6A9557
S1130250E2F78095822382BB0895CF93C82F613043
S1130260A1F441E060E00E94530041E061E08C2F82
S11302700E94530041E062E08C2F0E94530041E051
S113028063E08C2F0E94530013C040E060E00E94A2
S1130290530040E061E08C2F0E94530040E062E094
S11302A08C2F0E94530040E063E08C2F0E94530087
S11302B0CF910895CF93C82F6130A1F441E064E059
S11302C00E94530041E065E08C2F0E94530041E0FE
S11302D066E08C2F0E94530041E067E08C2F0E945F
S11302E0530013C040E064E00E94530040E065E026
S11302F08C2F0E94530040E066E08C2F0E94530034
S113030040E067E08C2F0E945300CF9108956F70F6
S1130310813069F028F0823089F08330B1F008959B
S11303208BB3807F8BBB8BB3682B6BBB089588B377
S1130330807F88BB88B3682B68BB089585B3807FB2
S113034085BB85B3682B65BB089582B3807F82BB70
S113035082B3682B62BB0895607F813069F028F016
S1130360823089F08330B1F008958BB38F708BBBEA
S11303708BB3682B6BBB089588B38F7088BB88B32D
S1130380682B68BB089585B38F7085BB85B3682BD4
S113039065BB089582B38F7082BB82B3682B62BB46
S11303A00895CF93DF93C82FD62F41E00E94C00059
S11303B08FE99FE00197F1F700C0000040E06D2F46
S11303C08C2F0E94C000DF91CF910895CF92EF92BD
S11303D0FF920F931F93CF93DF93F82ED62F142FF2
S11303E0C22FE11022C06C2D62956F700E948701AC
S11303F040E0612F8D2F0E94C000602F8C2F0E943F
S1130400D1016C2D8F2D0E94870140E0612F8D2F2B
S11304100E94C000602F8C2F0E94D1018FE99FE0C1
S11304200197F1F700C0000021C06C2D0E94AC01BF
S113043040E0612F8D2F0E94C000602F8C2F0E94FE
S1130440D1016C2D6295607F8F2D0E94AC0140E03C
S1130450612F8D2F0E94C000602F8C2F0E94D1012C
S11304608FE99FE00197F1F700C00000DF91CF9181
S11304701F910F91FF90EF90CF900895CF92DF924C
S1130480EF92FF920F931F93CF93DF93C82FD62F32
S1130490142FF22E2FEF81EE94E0215080409040F3
S11304A0E1F700C0000041E0612F8D2F0E9453004E
S11304B041E0602F8F2D0E945300E11052C061E093
S11304C08C2F0E942D016894CC24C1F82F2D412F2C
S11304D06D2F8C2F0E94E6018FE295E70197F1F7CB
S11304E000C000000F2EF8E2CF2EF02D2F2D412F4B
S11304F06D2F8C2F0E94E6018FEC97E00197F1F7A6
S113050000C000000F2EFEE0CF2EF02D2F2D412F26
S11305106D2F8C2F0E94E6018FEC97E00197F1F785
S113052000C00000CC24C3942F2D412F6D2F8C2F9D
S11305300E94E6018FE19EE40197F1F700C00000FC
S11305400F2EF6E0CF2EF02D2F2D412F6D2F8C2F57
S11305500E94E6018FEC97E00197F1F700C00000DC
S113056053C061E08C2F0E945A016894CC24C1F8D6
S1130570EE24E3942F2D412F6D2F8C2F0E94E60142
S11305808FE295E70197F1F700C000000F2EF8E223
S1130590CF2EF02D2F2D412F6D2F8C2F0E94E60191
S11305A08FEC97E00197F1F700C000000F2EFEE0FA
S11305B0CF2EF02D2F2D412F6D2F8C2F0E94E60171
S11305C08FEC97E00197F1F700C00000CC24C394AE
S11305D02F2D412F6D2F8C2F0E94E6018FE19EE479
S11305E00197F1F700C000000F2EF6E0CF2EF02D9A
S11305F02F2D412F6D2F8C2F0E94E6018FEC97E059
S11306000197F1F700C00000DF91CF911F910F9186
S1130610FF90EF90DF90CF900895CF92EF92FF92EA
S11306200F931F93CF93DF93F82ED62F142FC22F3F
S1130630E11022C06C2D62956F700E94870141E029
S1130640612F8D2F0E94C000602F8C2F0E94D1013A
S11306506C2D8F2D0E94870141E0612F8D2F0E9408
S1130660C000602F8C2F0E94D1018FE99FE0019779
S1130670F1F700C0000021C06C2D0E94AC0141E0E4
S1130680612F8D2F0E94C000602F8C2F0E94D101FA
S11306906C2D6295607F8F2D0E94AC0141E0612F2B
S11306A08D2F0E94C000602F8C2F0E94D1018FE9F2
S11306B09FE00197F1F700C00000DF91CF911F91F7
S11306C00F91FF90EF90CF9008958F929F92AF92E9
S11306D0BF92CF92DF92EF92FF920F931F93CF932B
S11306E0DF93882E962EA42EB22EF02E1E2DE60118
S11306F009C0E12E0F2D2B2D4A2D692D882D0E9426
S11307000D032196C880C110F4CFDF91CF911F91C2
S11307100F91FF90EF90DF90CF90BF90AF909F909C
S11307208F900895CF92EF920F93CC24C3940E949C
S1130730E6018FE19EE40197F1F700C000000F91FC
S1130740EF90CF900895AF92CF92EF920F939FEFD7
S11307509C0D9230B8F4AA20C9F090E19A15D0F01B
S113076091E0C91206C00F2EFFE7CF2EF02DCA0C60
S113077016C092E0C91212C00F2EFFEBCF2EF02D3F
S1130780CA0C0DC06894CC24C7F809C06894CC2462
S1130790C7F805C06894CC24C7F801C0C12C0E94D6
S11307A0E6018FEC97E00197F1F700C000000F918C
S11307B0EF90CF90AF90089580E895E20E940705EE
S11307C00E9460040E944900E12C05E020E047E01B
S11307D060E080E00E943E020F2EF0E6CF2EF0E0B3
S11307E0DF2EF02D20E047E060E080E00E9465030A
S11307F02FEF89E698E1215080409040E1F700C056
S1130800000020E047E060E080E00E9492030F2EA9
S1130810F8E6CF2EF0E0DF2EF02D20E047E060E098
S113082080E00E946503AA24A394CC24C39420E00E
S113083047E060E080E00E94A3030F2EF3E7CF2E91
S1130840F0E0DF2EF02D20E047E060E080E00E9441
S113085065036894AA24A1F86894CC24C1F820E024
S113086047E060E080E00E94A303FFCF1F920F9255
S11308700FB60F9211242F933F934F935F936F936F
S11308807F938F939F93AF93BF93EF93FF930E94B4
S1130890500080938300809183000E948A04FF911A
S11308A0EF91BF91AF919F918F917F916F915F91E4
S11308B04F913F912F910F900FBE0F901F9018955D
S11308C08DB180618DB941E064E081E00E94530004
S11308D041E065E081E00E94530041E067E081E08F
S11308E00E94530041E064E081E00E94C0008DB1A9
S11308F080628DB98DB1877F8DB98DB18B7F8DB9B4
S11309008EB18E7F8EB98DB18E7F8DB98DB18D7F75
S11309108DB90895CF93C82F8DB180648DB940E00F
S113092064E081E00E94C000CFB9779BFECF41E034
S113093064E081E00E94C0008FB1CF9108951F92BE
S11309400F920FB60F9211242F933F934F935F93FF
S11309506F937F938F939F93AF93BF93EF93FF9383
S113096080917E0090917F00A0918000B0918100E1
S11309700196A11DB11D80937E0090937F00A093EA
S11309808000B093810080918200882329F0E09157
S11309908600F09187000995FF91EF91BF91AF9187
S11309A09F918F917F916F915F914F913F912F9183
S11309B00F900FBE0F901F9018951F920F920FB6B5
S11309C00F9211242F933F934F935F936F937F93D1
S11309D08F939F93AF93BF93EF93FF93E091840022
S11309E0F0918500099588B7826088BFFF91EF91E7
S11309F0BF91AF919F918F917F916F915F914F9133
S1130A003F912F910F900FBE0F901F90189520B516
S1130A102F7720BD20B52F7B20BDDC01CB01880FB3
S1130A20991FAA1FBB1F880F991FAA1FBB1F9C01D8
S1130A30AD01220F331F441F551F220F331F441FC4
S1130A40551F60E072E18AE790E00E944B05215057
S1130A50310980B5826080BD80B5846080BD8AB173
S1130A608B7F8AB980B58F7E80BD80B58F7D80BD38
S1130A7080B5886080BD8AB188608AB98AB1806196
S1130A808AB980B5806880BD30BD29B908955F9B5F
S1130A90FECF8CB10895A1E21A2EAA1BBB1BFD0147
S1130AA00DC0AA1FBB1FEE1FFF1FA217B307E40749
S1130AB0F50720F0A21BB30BE40BF50B661F771FA1
S1130AC0881F991F1A9469F7609570958095909581
S1110AD09B01AC01BD01CF010895F894FFCF46
S1130ADE57656C636F6D650057656C636F6D65204C
S1110AEE544F00536D61727420486F6D6500A3
S9030000FC
